:020000040800F2
:10000000281B0020790200088102000883020008F2
:10001000850200088702000889020008000000002D
:100020000000000000000000000000008B0200083B
:100030008D02000800000000130200085D67000840
:10004000930200089302000893020008930200083C
:1000500093020008930200081D090008930200089B
:10006000930200089302000893020008930200081C
:10007000930200089302000893020008930200080C
:1000800093020008930200089302000893020008FC
:1000900093020008930200089302000893020008EC
:1000A00093020008930200089302000893020008DC
:1000B00093020008930200089302000893020008CC
:1000C00093020008930200089302000893020008BC
:1000D00093020008930200089302000893020008AC
:1000E000930200089302000893020008930200089C
:1000F000930200089302000893020008930200088C
:10010000930200089302000893020008930200087B
:10011000930200089302000893020008930200086B
:10012000930200089302000893020008930200085B
:10013000930200089302000893020008930200084B
:10014000930200089302000893020008930200083B
:10015000930200089302000893020008930200082B
:10016000930200089302000893020008930200081B
:1001700093020008930200089302000800000000A8
:100180009302000893020008DFF80CD000F0A2F9F7
:100190000048004745780008281B0020EFF309813C
:1001A00041B1F1EE101A40F8041D20ED200A294952
:1001B0000A6810607047B0EC200A02C8E1EE101A1D
:1001C00025490A6810607047EFF3108072B67047D7
:1001D00080F31088704721484FF0FF010170002024
:1001E00080F309881E48016881F308881D480121B1
:1001F00001701D484FF08051016062B6FEE71A4859
:100200004FF080510160704717484FF080510160F6
:10021000704772B6EFF3098028B1203880E8F00FFC
:100220000C490968086000B5104880475DF804EB88
:100230000F4810490A780270064807490A680260A8
:10024000106890E8F00F203080F309884EF0F40E2B
:1002500062B67047480000205000002022ED00E008
:10026000180000204200002004ED00E0E9650008CD
:100270003700002038000020064880470648004725
:10028000FEE7FEE7FEE7FEE7FEE7FEE7FEE7FEE746
:10029000FEE7FEE7CD6F0008890100082DE9FE4F5B
:1002A00081EA030404F0004421F0004100944FF07F
:1002B000000B23F0004350EA01045ED052EA03042D
:1002C0005BD0C3F30A54C1F30A552C44A4F2F334AF
:1002D0000194A0FB0254C1F3130141F48011C3F354
:1002E000130343F4801301FB024400FB034E840A12
:1002F000970A44EA815447EA8357A4FB07680295AA
:100300008D0A05FB07854FEA932C04FB0C54270547
:10031000029D4FEA065847EA1637B5EB08056EEB23
:10032000070C870E920E47EA811742EA8312A7FB59
:100330000201B6EB0B0164EB00042B0D43EA0C3316
:100340005E1844EB1C50DA465146E7FB0201C5F348
:1003500013044FEA0B3343EA14534FEA0432019C6F
:1003600043EA0603A4F10C040294009CCDE900B416
:1003700000F061F803B0BDE8F08F00200146F9E716
:100380000EB540F2334102910021CDE900110A4639
:100390000B4600F050F803B000BDC1F30A5210B58F
:1003A000C1F3130140F2FF3341F480119A4201DAA4
:1003B000002010BD40F233439A42A2F2334203DCE4
:1003C000524200F019F810BD904010BD30B50B46F8
:1003D000014600202022012409E021FA02F59D4275
:1003E00005D303FA02F5491B04FA02F52844151E49
:1003F000A2F10102F1DC30BD202A04DB203A21FA0F
:1004000002F00021704721FA02F3D040C2F120022D
:10041000914008431946704710B5141E73F100044B
:1004200008DA401C41F1000192185B411A4301D1E6
:1004300020F0010010BD2DE9F04D92469B4611B110
:10044000B1FA81F202E0B0FA80F22032904600F078
:1004500053F804460F4640EA0A0041EA0B015346AE
:100460005A46084313D0114653EA010019D0C8F187
:1004700040025046FFF7C0FF05460E46504659461B
:10048000424600F039F8084305D0012004E0204638
:100490003946BDE8F08D0020054346EAE0762C435E
:1004A00037430A986305E40AA0EB08000022FD0A1E
:1004B00044EA47540A3002D500200146E9E7010525
:1004C00010196941DDE9084500196941BDE8F04DA1
:1004D000A2E70000064C074D06E0E06840F001038B
:1004E00094E8070098471034AC42F6D3FFF750FE6B
:1004F0004494000864940008202A04DB203A00FA9F
:1005000002F1002070479140C2F1200320FA03F36A
:10051000194390407047000008B500BF00200090CC
:100520000F48006840F480600D4908600846006884
:1005300000F48060009000BF00BF0A480A490860CC
:1005400000204860002108488161C160016181602C
:100550000121016200214161016300F077FB08BDC8
:100560004438024000220140B40500205A4909687D
:1005700021F44031594AC2F804131146D1F804134A
:1005800042681143544A11600168496821F480713E
:100590000268516001684A68016942EA0121026803
:1005A00051600168496821F040710268516001683A
:1005B000496882681143026851600168896821F4C2
:1005C00000610268916001688968C268114302682D
:1005D0009160434AC16A914218D00168896821F04C
:1005E00070610268916001688968C26A114302689B
:1005F00091600168896821F040510268916001684A
:100600008968026B1143026891600BE00168896898
:1006100021F07061026891600168896821F04051A1
:10062000026891600168896821F0020102689160A6
:1006300001688A68816942EA410102689160416A01
:10064000D1B10168496841F40061026851600168F4
:10065000496821F460410268516001684A68816A12
:10066000491E4FF4604393FAA3F3B3FA83F399401E
:100670000A4301684A6005E00168496821F40061A5
:10068000026851600168C96A21F470010268D16290
:100690000168CA6A018C491E42EA01510268D162AE
:1006A0000168896821F400710268916001688A68B4
:1006B000C16942EA4121026891600168896821F4B8
:1006C00080610268916001688A68416942EA81211B
:1006D000026891607047000004230140002001403F
:1006E0000100000F704770477047704770477047B0
:1006F000704710B500F06AFC10BD000010B5002274
:100700004FF48071014800F055FC10BD0014024008
:1007100010B501221102024800F04CFC10BD00008F
:100720000014024070B50025002405F027F917E0F9
:100730000C48006818B1681CC5B2002407E0601CB2
:10074000C4B2032C03DD05F00FF9002070BD1E209C
:1007500006F03CFF642D03DB05F010F90120F5E7FE
:10076000E6E700000002404210B50024144800688B
:1007700020F440201249086008460068086004E040
:10078000601CC4B2012006F049FF0E48006808B1A1
:10079000642CF5DB642C01DB012010BD002404E097
:1007A000601CC4B2012006F039FF0648006808B991
:1007B000642CF5DB642C01DB0120EEE70020ECE784
:1007C000001802402402434200B587B000BF002059
:1007D00001900F48006840F040000D49086008464D
:1007E000006800F04000019000BF00BF4815029073
:1007F0000120039004900220059002A9054800F012
:10080000D3FA00F009F8FFF7AFFF07B000BD000012
:10081000303802400018024010B50C48006820F43F
:1008200040200A4908600846006840F480200860BB
:10083000002007490860142006F0C8FE0120054981
:10084000C1F8A4021E2006F0E9FE10BD0018024007
:10085000A40243420000434270B50024002506E094
:100860006006040E00F034F80443681CC5B2082D7D
:10087000F6DB204670BD7CB505460E46FFF7CCFF83
:10088000FFF772FFF8B9002405E0FFF7E5FF0DF868
:100890000400601CC4B2052CF7DB9DF800009DF835
:1008A000011008449DF8021008449DF80310084404
:1008B0009DF80410884208D19DF8000030709DF822
:1008C0000200287001E001207CBD0020FCE7000050
:1008D00010B5002404E0601CC4B2012006F09EFEA6
:1008E0000D48006808B1642CF5DB002404E0601CAE
:1008F000C4B2012006F092FE0748006808B9642CD3
:10090000F5DB282006F08AFE0348006808B10120C4
:1009100010BD0020FCE700002402434210B5012076
:1009200003490860FFF7FEFE08B106F001FB10BDA9
:10093000143C0140002123498279002A3AD00A461A
:10094000126803689A430B461A600A1D126803680E
:100950009A430B1D1A60027911440A6803681A430E
:100960000A60184A0832126803689A43154B083324
:100970001A601A1D126803689A43124B0C331A60EE
:100980004279102A0ED11A1F126803681A430D4BC0
:1009900008331A601A1D126803681A43094B0C3396
:1009A0001A600DE00749427911440A6803681A4346
:1009B0000A6005E0027911440A6803689A430A60F4
:1009C00070470000003C014010B503460022086853
:1009D00053F8202012480240D1E901042043CC689A
:1009E00020430C6920434C6920438C692043CC6927
:1009F00020430C6A20434C6A20438C6A2043CC6A13
:100A000020434C6B20430C6B20430243886808282A
:100A100001D142F04002086843F82020002010BDB8
:100A20008000F0FF30B503460024501C53F82040EE
:100A300004F04044D1E9000540EA05108D6840EA21
:100A400005208D8940EA0545088A401E45EA005583
:100A5000087D801E45EA00608D6928430443501CD0
:100A600043F82040002030BDF0B5002300244D079E
:100A7000ED0E02FA05F3CE1000F1200555F82650D0
:100A80004E07F70E0F26BE40B543CF1000F12006EB
:100A900046F82750CE1000F1200555F8265045EABB
:100AA0000304CE1000F1200545F82640F0BD0000FB
:100AB00018B502460020009000BF92F83C000128C3
:100AC00001D1022018BD012082F83C0000BF086857
:100AD000092816D91068C0680B780A3B03EB430459
:100AE0000723A34098431368D8600B780A3B03EBB5
:100AF0004303886898401368DB6818431368D8601C
:100B000013E0106800690B7803EB43040723A3404C
:100B10009843136818610B7803EB43038868984087
:100B200013681B691843136818614868072817D2AF
:100B30001068406B0B795B1E03EB83041F23A340FB
:100B4000984313685863088880B20B795B1E03EBE7
:100B50008303984013685B6B18431368586331E054
:100B600048680D2817D21068006B0B79DB1F03EB68
:100B700083041F23A340984313681863088880B236
:100B80000B79DB1F03EB8303984013681B6B18433F
:100B90001368186316E01068C06A0B790D3B03EB0D
:100BA00083041F23A34098431368D862088880B247
:100BB0000B790D3B03EB830398401368DB6A184302
:100BC0001368D8621B4B1068984208D10868122835
:100BD00005D11948006840F48000C3F80403154BA0
:100BE000106898421ED10868102802D008681128A1
:100BF00018D11148006840F400000F4B18600868D5
:100C000010280FD10D4800680D4BB0FBF3F000EB3E
:100C100080004000009002E00098401E0090009884
:100C20000028F9D100BF002082F83C0000BF00BFBF
:100C300048E7000000200140042301406C00002030
:100C400040420F0001460868C06C704710B504466A
:100C50000CB9012010BD1049E06A884200D000BFE5
:100C600094F83D0028B9002084F83C00204600F0AC
:100C700015F8022084F83D002046FFF777FC00209D
:100C80002064012084F83D0000BF002084F83C006F
:100C900000BF00BFDEE700000100000F704700004A
:100CA00008B501460020009000BF91F83C000128E3
:100CB00001D1022008BD012081F83C0000BF91F85D
:100CC0003D00222803D1322081F83D0002E01220AD
:100CD00081F83D000868806800F00100A0B908684C
:100CE000806840F001000A6890601B4800681B4A59
:100CF000B0FBF2F000EB4000009002E00098401ED4
:100D0000009000980028F9D100BF002081F83C0035
:100D100000BF1348006800F01F0058B908688068D9
:100D200000F04050A8B90868806840F080400A6828
:100D300090600EE00B4A086890420AD1086880680B
:100D400000F0405028B90868806840F080400A6888
:100D500090600020AEE700006C00002040420F00D1
:100D6000042301400020014001460868806820F00B
:100D700001000A689060012081F83D000020704762
:100D800008B50021009100BF08BD000010B5044661
:100D900004480068204020B1024804602046FFF764
:100DA000EFFF10BD143C0140F8B502460B4600258C
:100DB000002400200021E1E0012606FA01F51E686A
:100DC00006EA0504AC4273D15E68022E02D05E686A
:100DD000122E13D1CF0802F1200656F827004E0735
:100DE000F70E0F26BE40B0434F07FF0E1E69BE40F0
:100DF0003043CF0802F1200646F8270010684F0064
:100E00000326BE40B0431E7906F003064F00BE40E5
:100E1000304310605E68012E08D05E68022E05D057
:100E20005E68112E02D05E68122E13D190684F00BA
:100E30000326BE40B0434F00DE68BE4030439060A2
:100E4000506801268E40B0431E79C6F300168E40CE
:100E500030435060D0684F000326BE40B0434F007F
:100E60009E68BE403043D0605E6806F08056B6F1A2
:100E7000805FA8D100BF00260096424E366846F437
:100E80008046404F3E603E46366806F480460096F7
:100E900000BF00BF3C4E8F0856F827008E07370F63
:100EA0000F26BE40B043394EB24202D1002629E09F
:100EB00063E0374EB24201D1012623E0354EB24203
:100EC00001D102261EE0344EB24201D1032619E0C0
:100ED000324EB24201D1042614E0314EB24201D169
:100EE00005260FE02F4EB24201D106260AE02E4E13
:100EF000B24201D1072605E02C4EB24201D10826AC
:100F000000E009268F073F0FBE4030431E4E8F087A
:100F100046F82700264E3068A0435E6806F4803607
:100F2000B6F5803F00D12043214E3060361D306839
:100F3000A0435E6806F40036B6F5003F00D12043BA
:100F40001B4E361D3060361D3068A0435E6806F4C7
:100F50008016B6F5801F00D12043154E083630604C
:100F6000361D3068A0435E6806F40016B6F5001F13
:100F700000D120430E4E0C363060491C1029FFF47E
:100F80001BAFF8BD44380240083801400000024061
:100F90000004024000080240000C02400010024021
:100FA0000014024000180240001C024000200240D1
:100FB000003C01400AB1816101E00B04836170478C
:100FC000014800687047000068000020024800687F
:100FD000401C0149086070476800002000BF00F015
:100FE0001F02012191404209920002F1E022C2F861
:100FF000001100BF70472DE9F05F80460D46164690
:10100000002704F007FD074639462A46334601F01B
:101010000700C0F1070ABAF1040F02D94FF0040A21
:1010200001E0C0F1070AD14600F1040ABAF1070F46
:1010300002D24FF0000A01E0A0F1030AD4464FF0BB
:10104000010A0AFA09FAAAF1010A0AEA020A0AFAE4
:101050000CFA4FF0010B0BFA0CFBABF1010B0BEA96
:10106000030B4AEA0B042146404604F0DBFCBDE8D2
:10107000F09F00000120010291FAA1F1B1FA81F183
:10108000014A42F82100704700000E4202494968B7
:101090000143014A516070470070004007480068F2
:1010A00040F00200054908600548006840F004006F
:1010B0000349086000BF00BF30BF704700700040A8
:1010C00010ED00E010B500F045F80949096801F09D
:1010D000F001F02292FAA2F2B2FA82F2D140054A6D
:1010E000515CC840044908600846006810BD000013
:1010F00008380240349400086C00002010B5FFF757
:10110000E1FF0749096801F4E0514FF4E05292FA17
:10111000A2F2B2FA82F2D140024A515CC84010BD3C
:10112000083802403494000810B5FFF7CBFF074998
:10113000096801F460414FF4604292FAA2F2B2FAF7
:1011400082F2D140024A515CC84010BD08380240CA
:101150003494000870B50021002200230020274CA1
:10116000246804F00C0424B1042C04D0082C41D1D0
:1011700003E0234840E023483EE0204C241F24683D
:1011800004F03F011D4C241F246804F4800484B142
:101190001C4CB4FBF1F5194C241F246847F6C076AB
:1011A000344096FAA6F6B6FA86F6F44005FB04F249
:1011B0000FE0134CB4FBF1F5104C241F246847F6E4
:1011C000C076344096FAA6F6B6FA86F6F44005FBE9
:1011D00004F20A4C241F246804F440344FF44035D0
:1011E00095FAA5F5B5FA85F5EC40641C6300B2FBF1
:1011F000F3F001E0024800BF00BF70BD08380240B4
:101200000024F40040787D0110B504460CB901209B
:1012100010BDA06900B100E000BF94F8390028B902
:10122000002084F83800204600F026F8022084F8D8
:1012300039002068C06820F400502168C86020464A
:1012400005F0F6FE2068006920F4904021680861EE
:101250002068406920F02A00216848612068C06841
:1012600040F400502168C8600020E063012084F849
:1012700039000020CCE7000010B586B0044600BF5E
:10128000002000901748006840F0010015490860F0
:101290000846006800F00100009000BF00BF00BFDA
:1012A000002000900F481430006840F010000D49F5
:1012B000143108600846006800F01000009000BF7C
:1012C00000BF072005904FF4C060019002200290FB
:1012D000012003900220049001A90348FFF764FD58
:1012E00006B010BD30380240000002402DE9F04742
:1012F00004460D46164699464FF0000894F839808A
:10130000B8F1010F02D0B8F1220F65D105B116B9BD
:101310000120BDE8F08700BF94F83800012801D112
:101320000220F6E7012084F8380000BF0020E063C7
:1013300094F83900222803D1322084F8390002E0E1
:10134000122084F83900A684E68428E0E08C401E50
:10135000E084A068B0F5805F14D14B460022802164
:10136000204605F077FF08B10320D2E72F463888E2
:10137000C0F3080021684860206908B9AD1C0EE080
:101380006D1C0CE04B4600228021204605F062FFD8
:1013900008B10320BDE715F8010B21684860E08C17
:1013A0000028D3DC4B4600224021204605F052FFA6
:1013B00008B10320ADE794F83900322803D1222088
:1013C00084F8390002E0012084F8390000BF0020D1
:1013D00084F8380000BF9CE702209AE770B5044605
:1013E000002617480588408845431548808846F6FA
:1013F0000401884216D112488079012812D10020B8
:101400000F4988712A2048812B20888100210846B5
:1014100004F06CF801200A4988712B2048812A20A9
:10142000888103E00021084604F060F804F05CFACB
:10143000002602E003480480761CAE42FAD370BD59
:10144000F80500208000006C10B50446002C66D121
:101450006C498871F02008804FF4A07048800846DD
:10146000808849F2413188420BD06648808846F630
:101470000401884205D06348808845F210318842D3
:101480001AD12C205F4908812A2048812B2088818D
:101490000846808846F60401884205D0594880886D
:1014A00045F21031884206D14FF4A07055490880AA
:1014B0004FF4F0704880A1E05248808845F2105106
:1014C000884210D14FF430504E4908814FF42850D3
:1014D00048814FF42C5088814FF4F07008804FF40D
:1014E000487048808AE04748808841F66311884206
:1014F0000DD12C20434908812B2048812A20888146
:101500004FF4F07008804FF44870488076E0222055
:101510003C49088120204881212088816EE00120FB
:10152000384988714FF4A0700880F0204880084640
:10153000808849F24131884205D03248808845F29E
:101540001031884207D12C202E4908812A20488159
:101550002B2088813FE02B48808846F60401884292
:1015600007D12C20274908812B2048812A208881F7
:1015700031E02448808845F21051884210D14FF460
:101580003050204908814FF4285048814FF42C50A6
:1015900088814FF4487008804FF4F07048801AE05A
:1015A0001848808841F6631188420DD12C201549D6
:1015B00008812A2048812B2088814FF448700880B8
:1015C0004FF4F070488006E022200E490881212067
:1015D0004881202088810B48808846F60401884293
:1015E00005D00848808845F21031884206D14FF472
:1015F000F070044908804FF4A0704880002003F088
:10160000FFFD10BDF805002070B504460D461646D6
:101610005B48808849F24131884205D0584880882B
:1016200045F21031884214D15549488904F050F9E7
:10163000201204F041F9E0B204F03EF950498889E3
:1016400004F046F9281204F037F9E8B204F034F94E
:101650008CE04B48808845F21051884220D148499F
:10166000488904F035F9201204F026F944494989E3
:10167000491C88B204F02CF9E0B204F01DF940498D
:10168000888904F025F9281204F016F93C49898963
:10169000491C88B204F01CF9E8B204F00DF965E0C9
:1016A0003748808841F66311884228D134488079D0
:1016B00020B933480088401E001B84B23049488955
:1016C00004F006F9201204F0F7F8E0B204F0F4F8A0
:1016D000201204F0F1F8E0B204F0EEF8284988890D
:1016E00004F0F6F8281204F0E7F8E8B204F0E4F8A1
:1016F000281204F0E1F8E8B204F0DEF836E0204801
:10170000808846F6040188421DD11D488079012851
:1017100004D11B480088401E001B84B21849488928
:1017200004F0D6F8201204F0C7F8E0B204F0C4F8D0
:101730001349888904F0CCF8281204F0BDF8E8B207
:1017400004F0BAF812E00E488079012804D10C4860
:101750000088401E001B84B209494889214604F0D4
:10176000CDF807498889294604F0C8F8044800895B
:10177000044908804FF0D840A0F8806070BD000098
:10178000F80500207E00006C00B5ABB000202A9068
:1017900000BF0090FE48006840F00200FC4908606D
:1017A0000846006800F00200009000BF00BF00BFC4
:1017B000002000900846006840F0080008600846D5
:1017C000006800F00800009000BF00BF00BF0020CC
:1017D00000900846006840F0100008600846006865
:1017E00000F01000009000BF00BF00BF002000907C
:1017F0000846006840F0200008600846006800F0D5
:101800002000009000BF00BF00BF002000900846ED
:10181000006840F0400008600846006800F04000A2
:10182000009000BF00BF00BF00200090D8480830E3
:10183000006840F00100D649083108600846006899
:1018400000F00100009000BF00BF4FF40040259061
:1018500001202690022028900120279025A9CD481C
:10186000FFF7A2FA4CF233702590022026902890C0
:101870000120279025A9C848FFF796FA4FF68070F7
:1018800025900220269028900120279025A9C34862
:10189000FFF78AFA4FF48050259002202690289076
:1018A0000120279025A9BE48FFF77EFA4FF480500B
:1018B00025900220269028900120279025A9B9483C
:1018C000FFF772FA0C220021B348FFF7CDF80C2283
:1018D0000121B148FFF7C8F80C220421AE48FFF7F8
:1018E000C3F80C220521AC48FFF7BEF80C220821F2
:1018F000A948FFF7B9F80C220921A748FFF7B4F867
:101900000C220A21A448FFF7AFF80C220E21A248AE
:10191000FFF7AAF80C220F219F48FFF7A5F80C2229
:1019200007219E48FFF7A0F80C2208219B48FFF7EB
:101930009BF80C2209219948FFF796F80C220A21FE
:101940009648FFF791F80C220B219448FFF78CF88A
:101950000C2211469148FFF787F80C220D218F4881
:10196000FFF782F80C220E218C48FFF77DF80C223D
:101970000F218A48FFF778F80C2211468848FFF7B4
:1019800073F80C2211468748FFF76EF80F2010906D
:10199000002011903C20129000201390149015907C
:1019A00016900920099000200A9008200B90002032
:1019B0000C900D900E900F9006201790002018901C
:1019C000199010201A9000201B901C9022901D90BE
:1019D0001E904FF480501F90002020904FF48040C4
:1019E00021900020239017A901A8FEF7EDFF062201
:1019F00010A901A8FFF716F8062209A901A8FFF708
:101A000011F84FF02040806940F001004FF0204174
:101A10008861322005F0DAFD0121002003F06EFF1D
:101A2000322005F0D3FD002003F0AEFB5E49888034
:101A300008468088FF280ADB084680884FF6FF7139
:101A4000884204D058488088B0F5134F7ED1D32007
:101A500003F03EFF03F08EFB5349888003F08AFBBE
:101A60005149888003F086FB4F498880084680886A
:101A70004FF6FF7101EA00204B49888003F07AFBA2
:101A8000494989880843484988800846808849F23E
:101A9000413188425AD0BF2003F01AFF03F06AFB9D
:101AA0004149888003F066FB3F49888003F062FB70
:101AB0003D49888003F05EFB3B498880084680886A
:101AC0004FF6FF7101EA00203749888003F052FB8E
:101AD000354989880843344988800846808846F615
:101AE0000401884232D0D42003F0F2FE03F042FB1E
:101AF0002D49888003F03EFB2B49888003F03AFB98
:101B000029498880084680884FF6FF7101EA002045
:101B10002549888003F02EFB234989880843224900
:101B200088800846808845F21031884266D04FF49C
:101B30005A4003F0CDFE03F01DFB1B4988804FF493
:101B40005B4003F0C5FE03F015FB00E056E01649CC
:101B50008880084680884FF6FF7101EA002012490C
:101B600088804FF45C4003F0B3FE03F003FB0E49A2
:101B7000898808430C49888008468088B0F5004F62
:101B800002D145F210508880074880880EE000009E
:101B90003038024000040240000C024000100240B5
:101BA0000014024000180240F805002045F21051D0
:101BB000884223D0A12003F08BFE03F0DBFAFE491C
:101BC000888003F0D7FAFC498880084680884FF661
:101BD000FF7101EA0020F849888003F0CBFAF6494A
:101BE00089880843F44988800846808845F26171F5
:101BF000884203D141F66310EF498880EE4880881F
:101C000049F24131884211D0EB48808845F21031C9
:101C100088420BD0E848808845F21051884205D0B0
:101C2000E548808841F6631188421DD1E348006889
:101C300020F00F004FF02041C1F81C010846D0F8F9
:101C40001C0120F47060C1F81C010846D0F81C018A
:101C500040F00300C1F81C010846D0F81C0140F414
:101C60000070C1F81C0128E0D348808846F60401C2
:101C7000884205D0D04880884CF2055188421CD15A
:101C8000CE48006820F00F004FF02041C1F81C0141
:101C90000846D0F81C0120F47060C1F81C01084609
:101CA000D0F81C0140F00A00C1F81C010846D0F829
:101CB0001C0140F44060C1F81C01BF48808849F213
:101CC000413188427ED1CF2003F002FE002003F094
:101CD000F3FDC12003F0F0FD302003F0EDFDED2019
:101CE00003F0F6FD642003F0E7FD032003F0E4FDBC
:101CF000122003F0E1FD812003F0DEFDE82003F077
:101D0000E7FD852003F0D8FD102003F0D5FD7A20F3
:101D100003F0D2FDCB2003F0DBFD392003F0CCFD36
:101D20002C2003F0C9FD002003F0C6FD342003F091
:101D3000C3FD022003F0C0FDF72003F0C9FD202001
:101D400003F0BAFDEA2003F0C3FD002003F0B4FD68
:101D5000002003F0B1FDC02003F0BAFD1B2003F00A
:101D6000ABFDC12003F0B4FD012003F0A5FDC520AB
:101D700003F0AEFD302003F09FFD302003F09CFD0A
:101D8000C72003F0A5FDB72003F096FD362003F031
:101D90009FFD482003F090FD3A2003F099FD552067
:101DA00003F08AFDB12003F093FD002003F084FDD1
:101DB0001A2003F081FDB62003F08AFD0A2003F00B
:101DC0007BFD00E097E0A22003F076FDF22003F017
:101DD0007FFD002003F070FD262003F079FD012037
:101DE00003F06AFDE02003F073FD0F2003F064FDB3
:101DF0002A2003F061FD282003F05EFD082003F097
:101E00005BFD0E2003F058FD082003F055FD542023
:101E100003F052FDA92003F04FFD432003F04CFDD9
:101E20000A2003F049FD0F2003F046FD002003F0D7
:101E300043FD002003F040FD002003F03DFD0020A5
:101E400003F03AFDE12003F043FD002003F034FDF0
:101E5000152003F031FD172003F02EFD072003F0BD
:101E60002BFD112003F028FD062003F025FD2B207B
:101E700003F022FD562003F01FFD3C2003F01CFD63
:101E8000052003F019FD102003F016FD0F2003F0CC
:101E900013FD3F2003F010FD3F2003F00DFD0F2048
:101EA00003F00AFD2B2003F013FD002003F004FDD6
:101EB000002003F001FD012003F0FEFC3F2003F0B1
:101EC000FBFC2A2003F004FD002003F0F5FC0020B9
:101ED00003F0F2FC002003F0EFFCEF2003F0ECFC39
:101EE000112003F0F5FC782005F070FB292003F0A9
:101EF000EFFC03F022B93048808846F6040188429E
:101F00007ED1112003F0E4FC142005F05FFBD0200B
:101F100003F0DEFC072003F0CFFC422003F0CCFCF2
:101F20001D2003F0C9FCD12003F0D2FC002003F0F7
:101F3000C3FC1A2003F0C0FC092003F0BDFCD22032
:101F400003F0C6FC012003F0B7FC222003F0B4FC30
:101F5000C02003F0BDFC102003F0AEFC3B2003F0DA
:101F6000ABFC002003F0A8FC022003F0A5FC11202C
:101F700003F0A2FCC52003F0ABFC032003F09CFCA3
:101F8000C82003F0A5FC002003F096FC252003F0F8
:101F900093FC212003F090FC052003F08DFC002031
:101FA00003F08AFC0A2003F087FC652003F084FC20
:101FB000252003F081FC03E0F80500201C0100A0AF
:101FC000772003F079FC502003F076FC0F2003F01B
:101FD00073FC002003F070FCF82003F079FC012072
:101FE00003F06AFCFE2003F073FC002003F064FCA5
:101FF000022003F061FC202003F06AFC362000E0A0
:102000002FE003F065FC082003F056FC3A2003F0B3
:102010005FFC552003F050FC2B2003F059FC0020FE
:1020200003F04AFC002003F047FC012003F044FCCD
:102030003F2003F041FC2A2003F04AFC002003F07B
:102040003BFC002003F038FC012003F035FCDF20CE
:1020500003F032FC782005F0B9FA292003F038FCAF
:1020600047E7FE48808845F21031884240F07C877F
:10207000ED2003F02DFC012003F01EFCFE2003F0F8
:102080001BFCEE2003F024FCDE2003F015FC2120D5
:1020900003F012FCF12003F01BFC012003F00CFC08
:1020A000DF2003F015FC102003F006FCC42003F031
:1020B0000FFC8F2003F000FCC62003F009FC002079
:1020C00003F0FAFBE22003F0F7FBE22003F0F4FB5D
:1020D000E22003F0F1FBBF2003F0FAFBAA2003F09B
:1020E000EBFBB02003F0F4FB0D2003F0E5FB002038
:1020F00003F0E2FB0D2003F0DFFB002003F0DCFB2C
:10210000112003F0D9FB002003F0D6FB192003F0C7
:10211000D3FB002003F0D0FB212003F0CDFB0020F7
:1021200003F0CAFB2D2003F0C7FB002003F0C4FB23
:102130003D2003F0C1FB002003F0BEFB5D2003F057
:10214000BBFB002003F0B8FB5D2003F0B5FB0020D3
:1021500003F0B2FBB12003F0BBFB802003F0ACFB2B
:10216000002003F0A9FB8B2003F0A6FB002003F066
:10217000A3FB962003F0A0FB002003F09DFBB22000
:1021800003F0A6FB002003F097FB002003F094FB74
:10219000022003F091FB002003F08EFB032003F0EC
:1021A0008BFB002003F088FBB32003F091FB0020A1
:1021B00003F082FB002003F07FFB002003F07CFB98
:1021C000002003F079FB002003F076FB002003F0F1
:1021D00073FB002003F070FB002003F06DFB002078
:1021E00003F06AFB002003F067FB002003F064FBB0
:1021F000002003F061FB002003F05EFB002003F0F1
:102200005BFB002003F058FB002003F055FB00208F
:1022100003F052FB002003F04FFB002003F04CFBC7
:10222000002003F049FB002003F046FB002003F0F0
:1022300043FB002003F040FB002003F03DFBB420F3
:1022400003F046FB8B2003F037FB002003F034FB48
:10225000962003F031FB002003F02EFBA12003F0B9
:102260002BFB002003F028FBB52003F031FB0220FC
:1022700003F022FB002003F01FFB032003F01CFBF4
:10228000002003F019FB042003F016FB002003F0EC
:1022900013FBB62003F01CFB002003F00DFB002015
:1022A00003F00AFBB72003F013FB002003F004FB4C
:1022B000002003F001FB3F2003F0FEFA002003F0B2
:1022C000FBFA5E2003F0F8FA002003F0F5FA642030
:1022D00003F0F2FA002003F0EFFA8C2003F0ECFA9E
:1022E000002003F0E9FAAC2003F0E6FA002003F046
:1022F000E3FADC2003F0E0FA002003F0DDFA7020BE
:1023000003F0DAFA002003F0D7FA902003F0D4FAB1
:10231000002003F0D1FAEB2003F0CEFA002003F006
:10232000CBFADC2003F0C8FA002003F0C5FAB8208D
:1023300003F0CEFA002003F0BFFA002003F0BCFA4D
:10234000002003F0B9FA002003F0B6FA002003F0F1
:10235000B3FA002003F0B0FA002003F0ADFA002039
:1023600003F0AAFABA2003F0B3FA242003F0A4FA87
:10237000002003F0A1FA002003F09EFA002003F0F1
:102380009BFAC12003F0A4FA202003F095FA002064
:1023900003F092FA542003F08FFA002003F08CFA35
:1023A000FF2003F089FA002003F086FAC22003F030
:1023B0008FFA0A2003F080FA002003F07DFA04204F
:1023C00003F07AFA002003F077FAC32003F080FAD2
:1023D0003C2003F071FA002003F06EFA3A2003F07B
:1023E0006BFA002003F068FA392003F065FA002048
:1023F00003F062FA372003F05FFA002003F05CFA82
:102400003C2003F059FA002003F056FA362003F07E
:1024100053FA002003F050FA322003F04DFA002066
:1024200003F04AFA2F2003F047FA002003F044FAA1
:102430002C2003F041FA002003F03EFA292003F09B
:102440003BFA002003F038FA262003F035FA00208A
:1024500003F032FA242003F02FFA01E0F8050020FF
:10246000002003F029FA242003F026FA002003F0CC
:1024700023FA232003F020FA002003F01DFA3C2069
:1024800003F01AFA002003F017FA362003F014FACA
:10249000002003F011FA322003F00EFA002003F0BE
:1024A0000BFA2F2003F008FA002003F005FA2C2085
:1024B00003F002FA002003F0FFF9292003F0FCF9F1
:1024C000002003F0F9F9262003F0F6F9002003F0CC
:1024D000F3F9242003F0F0F9002003F0EDF92420B3
:1024E00003F0EAF9002003F0E7F9232003F0E4F910
:1024F000002003F0E1F9C42003F0EAF9622003F0C0
:10250000DBF9002003F0D8F9052003F0D5F900200D
:1025100003F0D2F9842003F0CFF9002003F0CCF9C6
:10252000F02003F0C9F9002003F0C6F9182003F0E9
:10253000C3F9002003F0C0F9A42003F0BDF9002086
:1025400003F0BAF9182003F0B7F9002003F0B4F94A
:10255000502003F0B1F9002003F0AEF90C2003F095
:10256000ABF9002003F0A8F9172003F0A5F900202B
:1025700003F0A2F9952003F09FF9002003F09CF9E5
:10258000F32003F099F9002003F096F9E62003F018
:1025900093F9002003F090F9C52003F099F9322057
:1025A00003F08AF9002003F087F9442003F084F94E
:1025B000002003F081F9652003F07EF9002003F08C
:1025C0007BF9762003F078F9002003F075F9882074
:1025D00003F072F9002003F06FF9C62003F078F9D8
:1025E000202003F069F9002003F066F9172003F0BA
:1025F00063F9002003F060F9012003F05DF9002089
:1026000003F05AF9C72003F063F9002003F054F9EE
:10261000002003F051F9002003F04EF9002003F0F0
:102620004BF9C82003F054F9002003F045F90020CD
:1026300003F042F9002003F03FF9002003F03CF9D9
:10264000C92003F045F9002003F036F9002003F01B
:1026500033F9002003F030F9002003F02DF90020B9
:1026600003F02AF9002003F027F9002003F024F9F1
:10267000002003F021F9002003F01EF9002003F0F0
:102680001BF9002003F018F9002003F015F90020D1
:1026900003F012F9002003F00FF9002003F00CF909
:1026A000002003F009F9E02003F012F9162003F0EE
:1026B00003F9002003F000F91C2003F0FDF80020CE
:1026C00003F0FAF8212003F0F7F8002003F0F4F803
:1026D000362003F0F1F8002003F0EEF8462003F076
:1026E000EBF8002003F0E8F8522003F0E5F80020B2
:1026F00003F0E2F8642003F0DFF8002003F0DCF8D8
:102700007A2003F0D9F8002003F0D6F88B2003F0EC
:10271000D3F8002003F0D0F8992003F0CDF8002082
:1027200003F0CAF8A82003F0C7F8002003F0C4F8AB
:10273000B92003F0C1F8002003F0BEF8C42003F074
:10274000BBF8002003F0B8F8CA2003F0B5F8002069
:1027500003F0B2F8D22003F0AFF8002003F0ACF899
:10276000D92003F0A9F8002003F0A6F8E02003F038
:10277000A3F8002003F0A0F8F32003F09DF8002058
:1027800003F09AF8E12003F0A3F8162003F094F880
:10279000002003F091F81C2003F08EF8002003F0D5
:1027A0008BF8222003F088F8002003F085F836200B
:1027B00003F082F8002003F07FF8452003F07CF856
:1027C000002003F079F8522003F076F8002003F09F
:1027D00073F8642003F070F8002003F06DF87A209D
:1027E00003F06AF8002003F067F88B2003F064F828
:1027F000002003F061F8992003F05EF8002003F058
:102800005BF8A82003F058F8002003F055F8B92031
:1028100003F052F8002003F04FF8C42003F04CF806
:10282000002003F049F8CA2003F046F8002003F026
:1028300043F8D22003F040F8002003F03DF8D82000
:1028400003F03AF8002003F037F8E02003F034F802
:10285000002003F031F8F32003F02EF8002003F0FD
:102860002BF8E22003F034F8052003F025F80020CF
:1028700003F022F80B2003F01FF8002003F01CF8EF
:102880001B2003F019F8002003F016F8342003F0A1
:1028900013F8002003F010F8442003F00DF8002096
:1028A00003F00AF84F2003F007F8002003F004F8C3
:1028B000612003F001F8002002F0FEFF792002F011
:1028C000FBFF002002F0F8FF882002F0F5FF002057
:1028D00002F0F2FF972002F0EFFF002002F0ECFF81
:1028E000A62002F0E9FF002002F0E6FFB72002F088
:1028F000E3FF002002F0E0FFC22002F0DDFF002035
:1029000002F0DAFFC72002F0D7FF002002F0D4FF68
:10291000D12002F0D1FF002002F0CEFFD62002F03D
:10292000CBFF002002F0C8FFDD2002F0C5FF002031
:1029300002F0C2FFF32002F0BFFF002002F0BCFF54
:10294000E32002F0C5FF052002F0B6FF002002F0F0
:10295000B3FF0A2002F0B0FF002002F0ADFF1C2000
:1029600002F0AAFF002002F0A7FF332002F0A4FF2C
:10297000002002F0A1FF442002F09EFF002002F0A0
:102980009BFF502002F098FF002002F095FF62208C
:1029900002F092FF002002F08FFF782002F08CFFFF
:1029A000002002F089FF882002F086FF002002F05C
:1029B00083FF972002F080FF002002F07DFFA62019
:1029C00002F07AFF002002F077FFB72002F074FFD8
:1029D000002002F071FFC22002F06EFF002002F022
:1029E0006BFFC72002F068FF002002F065FFD120D6
:1029F00002F062FF002002F05FFFD52002F05CFFD2
:102A0000002002F059FFDD2002F056FF002002F006
:102A100053FFF32002F050FF002002F04DFFE420AE
:102A200002F056FF012002F047FF002002F044FFB1
:102A3000012002F041FF002002F03EFF022002F0E0
:102A40003BFF002002F038FF2A2002F035FF002073
:102A500002F032FF3C2002F02FFF002002F02CFF9A
:102A60004B2002F029FF002002F026FF5D2002F03B
:102A700023FF002002F020FF742002F01DFF002041
:102A800002F01AFF842002F017FF002002F014FF6A
:102A9000932002F011FF002002F00EFFA22002F0AE
:102AA0000BFF002002F008FFB32002F005FF00201A
:102AB00002F002FFBE2002F0FFFE002002F0FCFE4A
:102AC000C42002F0F9FE002002F0F6FECD2002F054
:102AD000F3FE002002F0F0FED32002F0EDFE002015
:102AE00002F0EAFEDD2002F0E7FE002002F0E4FE44
:102AF000F32002F0E1FE002002F0DEFEE52002F00D
:102B0000E7FE002002F0D8FE002002F0D5FE0020F3
:102B100002F0D2FE002002F0CFFE022002F0CCFE36
:102B2000002002F0C9FE292002F0C6FE002002F0BB
:102B3000C3FE3C2002F0C0FE002002F0BDFE4B2090
:102B400002F0BAFE002002F0B7FE5D2002F0B4FEF3
:102B5000002002F0B1FE742002F0AEFE002002F070
:102B6000ABFE842002F0A8FE002002F0A5FE932018
:102B700002F0A2FE002002F09FFEA22002F09CFEC6
:102B8000002002F099FEB32002F096FE002002F031
:102B900093FEBE2002F090FE002002F08DFEC420C5
:102BA00002F08AFE002002F087FECD2002F084FEB3
:102BB000002002F081FED32002F07EFE002002F011
:102BC0007BFEDC2002F078FE002002F075FEF32090
:102BD00002F072FE002002F06FFEE62002F078FEA6
:102BE000112002F069FE002002F066FE342002F09F
:102BF00063FE002002F060FE562002F05DFE002021
:102C000002F05AFE762002F057FE002002F054FE39
:102C1000772002F051FE002002F04EFE662002F006
:102C20004BFE002002F048FE882002F045FE002006
:102C300002F042FE992002F03FFE002002F03CFE2E
:102C4000BB2002F039FE002002F036FE992002F08F
:102C500033FE002002F030FE662002F02DFE002040
:102C600002F02AFE552002F027FE002002F024FE8A
:102C7000552002F021FE002002F01EFE452002F049
:102C80001BFE002002F018FE432002F015FE00207B
:102C900002F012FE442002F00FFE002002F00CFEB3
:102CA000E72002F015FE322002F006FE002002F0BE
:102CB00003FE552002F000FE002002F0FDFD76200C
:102CC00002F0FAFD002002F0F7FD662002F0F4FDAC
:102CD000002002F0F1FD672002F0EEFD002002F07E
:102CE000EBFD672002F0E8FD002002F0E5FD872003
:102CF00002F0E2FD002002F0DFFD992002F0DCFD91
:102D0000002002F0D9FDBB2002F0D6FD002002F029
:102D1000D3FD992002F0D0FD002002F0CDFD7720F8
:102D200002F0CAFD002002F0C7FD442002F0C4FDFD
:102D3000002002F0C1FD562002F0BEFD002002F08E
:102D4000BBFD232002F0B8FD002002F0B5FD3320CA
:102D500002F0B2FD002002F0AFFD452002F0ACFD14
:102D6000002002F0A9FDE82002F0B2FD002002F0F0
:102D7000A3FD002002F0A0FD992002F09DFD00209F
:102D800002F09AFD872002F097FD002002F094FDEA
:102D9000882002F091FD002002F08EFD772002F0E5
:102DA0008BFD002002F088FD662002F085FD0020EA
:102DB00002F082FD882002F07FFD002002F07CFD01
:102DC000AA2002F079FD002002F076FDBB2002F07F
:102DD00073FD002002F070FD992002F06DFD0020CF
:102DE00002F06AFD662002F067FD002002F064FD3B
:102DF000552002F061FD002002F05EFD552002F03A
:102E00005BFD002002F058FD442002F055FD00203B
:102E100002F052FD442002F04FFD002002F04CFD74
:102E2000552002F049FD002002F046FDE92002F0A5
:102E30004FFDAA2002F040FD002002F03DFD0020E1
:102E400002F03AFD002002F037FD002002F040FDC4
:102E5000AA2002F031FDCF2002F03AFD002002F05E
:102E60002BFD002002F028FD002002F025FD0020AF
:102E700002F022FD002002F01FFD002002F01CFDE8
:102E8000002002F019FD002002F016FD002002F0E3
:102E900013FD002002F010FD002002F00DFD0020C7
:102EA00002F00AFD002002F007FD002002F004FD00
:102EB000002002F001FD002002F0FEFC002002F0E4
:102EC000FBFCF02002F004FD002002F0F5FC502095
:102ED00002F0F2FC002002F0EFFC002002F0ECFC1B
:102EE000002002F0E9FCF32002F0F2FC002002F0E6
:102EF000E3FCF92002F0ECFC062002F0DDFC1020DF
:102F000002F0DAFC292002F0D7FC002002F0D4FC09
:102F10003A2002F0DDFC552002F0CEFC112002F038
:102F2000D7FC642004F052FB292002F0D1FC3520AC
:102F300002F0CEFC002002F0BFFC512002F0C8FCE1
:102F4000FF2002F0B9FC532002F0C2FC2C2002F05A
:102F5000B3FC552002F0BCFC822002F0ADFC2C201A
:102F600002F0B6FC02F0E9B8FE48808845F2105144
:102F700088427DD155214FF4704002F0BFFCAA2158
:102F80004FF2010002F0BAFC52214FF2020002F0AF
:102F9000B5FC08214FF2030002F0B0FC01214FF212
:102FA000040002F0ABFC0D214FF4304002F0A6FC0F
:102FB0000D214BF2010002F0A1FC0D214BF20200A9
:102FC00002F09CFC34214FF4364002F097FC34218F
:102FD0004BF2016002F092FC34214BF2026002F0ED
:102FE0008DFC0D214FF4314002F088FC0D214BF295
:102FF000011002F083FC0D214BF2021002F07EFC66
:1030000034214FF4374002F079FC34214BF2017047
:1030100002F074FC34214BF2027002F06FFC0021CC
:103020004FF4324002F06AFC00214BF2012002F022
:1030300065FC00214BF2022002F060FC24214FF4D9
:10304000384002F05BFC24214BF6010002F056FCF4
:1030500024214BF6020002F051FC01214FF43F40C5
:1030600002F04CFC0F214FF4334002F047FC00E02B
:10307000FDE30F214BF2013002F040FC0F214BF237
:10308000023002F03BFC34214FF4394002F036FCB0
:1030900034214BF6011002F031FC34214BF60210C2
:1030A00002F02CFC08214FF4354002F027FC0821E7
:1030B0004BF2015002F022FC08214BF2025002F0C8
:1030C0001DFC03214FF4424002F018FC24214FF470
:1030D0003A4002F013FC24214BF6012002F00EFCD2
:1030E00024214BF6022002F009FC00214FF43C4061
:1030F00002F004FC78214BF6014002F0FFFB0021B6
:103100004BF6024002F0FAFB00214FF43D4002F082
:10311000F5FB78214BF6015002F0F0FB00214BF655
:10312000025002F0EBFB00214FF43E4002F0E6FBC0
:1031300064214BF6016002F0E1FB00214FF45140A5
:1031400002F0DCFB33214DF2011002F0D7FB00212D
:103150004DF2021002F0D2FB34214DF2031002F0C6
:10316000CDFB00214DF2041002F0C8FB3A214DF2D4
:10317000051002F0C3FB00214DF2061002F0BEFB69
:103180004A214DF2071002F0B9FB00214DF2081060
:1031900002F0B4FB5C214DF2091002F0AFFB0021FC
:1031A0004DF20A1002F0AAFB81214DF20B1002F041
:1031B000A5FB00214DF20C1002F0A0FBA6214DF260
:1031C0000D1002F09BFB00214DF20E1002F096FB59
:1031D000E5214DF20F1002F091FB01214DF210108C
:1031E00002F08CFB13214DF2111002F087FB01213C
:1031F0004DF2121002F082FB54214DF2131002F036
:103200007DFB01214DF2141002F078FB82214DF27A
:10321000151002F073FB01214DF2161002F06EFB47
:10322000CA214DF2171002F069FB02214DF218106D
:1032300002F064FB00214DF2191002F05FFB022145
:103240004DF21A1002F05AFB01214DF21B1002F050
:1032500055FB02214DF21C1002F050FB34214DF2BF
:103260001D1002F04BFB02214DF21E1002F046FB36
:1032700067214DF21F1002F041FB02214DF2201098
:1032800002F03CFB84214DF2211002F037FB0221B9
:103290004DF2221002F032FBA4214DF2231002F075
:1032A0002DFB02214DF2241002F028FBB7214DF234
:1032B000251002F023FB02214DF2261002F01EFB26
:1032C000CF214DF2271002F019FB02214DF22810F8
:1032D00002F014FBDE214DF2291002F00FFB022157
:1032E0004DF22A1002F00AFBF2214DF22B1002F0EF
:1032F00005FB02214DF22C1002F000FBFE214DF2E5
:103300002D1002F0FBFA03214DF22E1002F0F6FA16
:1033100010214DF22F1002F0F1FA03214DF230107E
:1033200002F0ECFA33214DF2311002F0E7FA0321FA
:103330004DF2321002F0E2FA6D214DF2331002F03C
:10334000DDFA00214FF4524002F0D8FA33214DF259
:10335000012002F0D3FA00214DF2022002F0CEFA51
:10336000342101E0F80500204DF2032002F0C6FAF6
:1033700000214DF2042002F0C1FA3A214DF205205D
:1033800002F0BCFA00214DF2062002F0B7FA4A2101
:103390004DF2072002F0B2FA00214DF2082002F0AF
:1033A000ADFA5C214DF2092002F0A8FA00214DF29D
:1033B0000A2002F0A3FA81214DF20B2002F09EFABE
:1033C00000214DF20C2002F099FAA6214DF20D20B9
:1033D00002F094FA00214DF20E2002F08FFAE5215E
:1033E0004DF20F2002F08AFA01214DF2102002F076
:1033F00085FA13214DF2112002F080FA01214DF2DD
:10340000122002F07BFA54214DF2132002F076FADA
:1034100001214DF2142002F071FA82214DF21520A3
:1034200002F06CFA01214DF2162002F067FACA216F
:103430004DF2172002F062FA02214DF2182002F03C
:103440005DFA00214DF2192002F058FA02214DF2E6
:103450001A2002F053FA01214DF21B2002F04EFA1D
:1034600002214DF21C2002F049FA34214DF21D20B8
:1034700002F044FA02214DF21E2002F03FFA6721C9
:103480004DF21F2002F03AFA02214DF2202002F004
:1034900035FA84214DF2212002F030FA02214DF25A
:1034A000222002F02BFAA4214DF2232002F026FA6A
:1034B00002214DF2242002F021FAB7214DF22520FD
:1034C00002F01CFA02214DF2262002F017FACF2159
:1034D0004DF2272002F012FA02214DF2282002F0CC
:1034E0000DFADE214DF2292002F008FA02214DF2F8
:1034F0002A2002F003FAF2214DF22B2002F0FEF90D
:1035000002214DF22C2002F0F9F9FE214DF22D207E
:1035100002F0F4F903214DF22E2002F0EFF9102110
:103520004DF22F2002F0EAF903214DF2302002F093
:10353000E5F933214DF2312002F0E0F903214DF29B
:10354000322002F0DBF96D214DF2332002F0D6F982
:1035500000214FF4534002F0D1F933214DF20130F4
:1035600002F0CCF900214DF2023002F0C7F934210B
:103570004DF2033002F0C2F900214DF2043002F0A6
:10358000BDF93A214DF2053002F0B8F900214DF2B3
:10359000063002F0B3F94A214DF2073002F0AEF9DD
:1035A00000214DF2083002F0A9F95C214DF20930FA
:1035B00002F0A4F900214DF20A3002F09FF98121B6
:1035C0004DF20B3002F09AF900214DF20C3002F06E
:1035D00095F9A6214DF20D3002F090F900214DF23F
:1035E0000E3002F08BF9E5214DF20F3002F086F932
:1035F00001214DF2103002F081F913214DF211300A
:1036000002F07CF901214DF2123002F077F95421D9
:103610004DF2133002F072F901214DF2143002F034
:103620006DF982214DF2153002F068F901214DF259
:10363000163002F063F9CA214DF2173002F05EF93C
:1036400002214DF2183002F059F900214DF21930E3
:1036500002F054F902214DF21A3002F04FF9012123
:103660004DF21B3002F04AF902214DF21C3002F0FB
:1036700045F934214DF21D3002F040F902214DF29E
:103680001E3002F03BF967214DF21F3002F036F98F
:1036900002214DF2203002F031F984214DF2213027
:1036A00002F02CF902214DF2223002F027F9A42178
:1036B0004DF2233002F022F902214DF2243002F0C3
:1036C0001DF9B7214DF2253002F018F902214DF213
:1036D000263002F013F9CF214DF2273002F00EF917
:1036E00002214DF2283002F009F9DE214DF2293095
:1036F00002F004F902214DF22A3002F0FFF8F22123
:103700004DF22B3002F0FAF802214DF22C3002F08B
:10371000F5F8FE214DF22D3002F0F0F803214DF2C4
:103720002E3002F0EBF810214DF22F3002F0E6F8C7
:1037300003214DF2303002F0E1F833214DF2313007
:1037400002F0DCF803214DF2323002F0D7F86D219F
:103750004DF2333002F0D2F800214FF4544002F021
:10376000CDF833214DF2014002F0C8F800214DF2AE
:10377000024002F0C3F834214DF2034002F0BEF8DB
:1037800000214DF2044002F0B9F83A214DF2054013
:1037900002F0B4F800214DF2064002F0AFF84A21E1
:1037A0004DF2074002F0AAF800214DF2084002F065
:1037B000A5F85C214DF2094002F0A0F800214DF27D
:1037C0000A4002F09BF881214DF20B4002F096F87E
:1037D00000214DF20C4002F091F8A6214DF20D406F
:1037E00002F08CF800214DF20E4002F087F8E5213E
:1037F0004DF20F4002F082F801214DF2104002F02C
:103800007DF813214DF2114002F078F801214DF2BC
:10381000124002F073F854214DF2134002F06EF89A
:1038200001214DF2144002F069F882214DF2154059
:1038300002F064F801214DF2164002F05FF8CA214F
:103840004DF2174002F05AF802214DF2184002F0F2
:1038500055F800214DF2194002F050F802214DF2C6
:103860001A4002F04BF801214DF21B4000E006E344
:1038700002F044F802214DF21C4002F03FF83421DE
:103880004DF21D4002F03AF802214DF21E4002F0C6
:1038900035F867214DF21F4002F030F802214DF259
:1038A000204002F02BF884214DF2214002F026F84E
:1038B00002214DF2224002F021F8A4214DF22340D2
:1038C00002F01CF802214DF2244002F017F8B72153
:1038D0004DF2254002F012F802214DF2264002F08E
:1038E0000DF8CF214DF2274002F008F802214DF2E9
:1038F000284002F003F8DE214DF2294001F0FEFFDE
:1039000002214DF22A4001F0F9FFF2214DF22B4045
:1039100001F0F4FF02214DF22C4001F0EFFFFE21F7
:103920004DF22D4001F0EAFF03214DF22E4001F04F
:10393000E5FF10214DF22F4001F0E0FF03214DF291
:10394000304001F0DBFF33214DF2314001F0D6FF72
:1039500003214DF2324001F0D1FF6D214DF2334091
:1039600001F0CCFF00214FF4554001F0C7FF332197
:103970004DF2015001F0C2FF00214DF2025001F062
:10398000BDFF34214DF2035001F0B8FF00214DF28C
:10399000045001F0B3FF3A214DF2055001F0AEFFA3
:1039A00000214DF2065001F0A9FF4A214DF20750C7
:1039B00001F0A4FF00214DF2085001F09FFF5C21AF
:1039C0004DF2095001F09AFF00214DF20A5001F02A
:1039D00095FF81214DF20B5001F090FF00214DF237
:1039E0000C5001F08BFFA6214DF20D5001F086FF27
:1039F00000214DF20E5001F081FFE5214DF20F50F4
:103A000001F07CFF01214DF2105001F077FF1321EE
:103A10004DF2115001F072FF01214DF2125001F0F0
:103A20006DFF54214DF2135001F068FF01214DF25A
:103A3000145001F063FF82214DF2155001F05EFF3A
:103A400001214DF2165001F059FFCA214DF21750D5
:103A500001F054FF02214DF2185001F04FFF0021F8
:103A60004DF2195001F04AFF02214DF21A5001F0B7
:103A700045FF01214DF21B5001F040FF02214DF2A4
:103A80001C5001F03BFF34214DF21D5001F036FF78
:103A900002214DF21E5001F031FF67214DF21F50FF
:103AA00001F02CFF02214DF2205001F027FF84216C
:103AB0004DF2215001F022FF02214DF2225001F07F
:103AC0001DFFA4214DF2235001F018FF02214DF2F9
:103AD000245001F013FFB7214DF2255001F00EFFE5
:103AE00002214DF2265001F009FFCF214DF227505F
:103AF00001F004FF02214DF2285001F0FFFEDE210B
:103B00004DF2295001F0FAFE02214DF22A5001F047
:103B1000F5FEF2214DF22B5001F0F0FE02214DF2A4
:103B20002C5001F0EBFEFE214DF22D5001F0E6FE8F
:103B300003214DF22E5001F0E1FE10214DF22F50E5
:103B400001F0DCFE03214DF2305001F0D7FE3321AD
:103B50004DF2315001F0D2FE03214DF2325001F00E
:103B6000CDFE6D214DF2335001F0C8FE00214FF41F
:103B7000564001F0C3FE33214DF2016001F0BEFE5C
:103B800000214DF2026001F0B9FE34214DF20360D4
:103B900001F0B4FE00214DF2046001F0AFFE3A21C5
:103BA0004DF2056001F0AAFE00214DF2066001F021
:103BB000A5FE4A214DF2076001F0A0FE00214DF262
:103BC000086001F09BFE5C214DF2096001F096FE59
:103BD00000214DF20A6001F091FE81214DF20B604F
:103BE00001F08CFE00214DF20C6001F087FEA62151
:103BF0004DF20D6001F082FE00214DF20E6001F0E9
:103C00007DFEE5214DF20F6001F078FE01214DF2BD
:103C1000106001F073FE13214DF2116001F06EFE91
:103C200001214DF2126001F069FE54214DF2136042
:103C300001F064FE01214DF2146001F05FFE82216B
:103C40004DF2156001F05AFE01214DF2166001F0AF
:103C500055FECA214DF2176001F050FE02214DF2CF
:103C6000186001F04BFE00214DF2196001F046FE94
:103C700002214DF21A6001F041FE01214DF21B605C
:103C800001F03CFE02214DF21C6001F037FE3421B0
:103C90004DF21D6001F032FE02214DF21E6001F076
:103CA0002DFE67214DF21F6001F028FE02214DF22A
:103CB000206001F023FE84214DF2216001F01EFE00
:103CC00002214DF2226001F019FEA4214DF2236081
:103CD00001F014FE02214DF2246001F00FFEB72125
:103CE0004DF2256001F00AFE02214DF2266001F03E
:103CF00005FECF214DF2276001F000FE02214DF2BA
:103D0000286001F0FBFDDE214DF2296001F0F6FD97
:103D100002214DF22A6001F0F1FDF2214DF22B60FB
:103D200001F0ECFD02214DF22C6001F0E7FDFE21D7
:103D30004DF22D6001F0E2FD03214DF22E6001F005
:103D4000DDFD10214DF22F6001F0D8FD03214DF271
:103D5000306001F0D3FD33214DF2316001F0CEFD32
:103D600003214DF2326001F0C9FD6D214DF2336047
:103D700001F0C4FD55214FF4704001F0BFFDAA21B0
:103D80004FF2010001F0BAFD52214FF2020001F0A2
:103D9000B5FD08214FF2030001F0B0FD00214FF204
:103DA000040001F0ABFDCC214FF4314001F0A6FD41
:103DB00000214BF2011001F0A1FD05214FF4364026
:103DC00001F09CFD70214FF4374001F097FD702108
:103DD0004BF2017001F092FD01214FF4384001F0E7
:103DE0008DFD03214BF6010001F088FD03214BF608
:103DF000020001F083FD03214BF6030001F07EFD7C
:103E000002214FF43C4001F079FD00214BF60140C6
:103E100001F074FD00214BF6024001F06FFDD0214E
:103E20004FF4494001F06AFD02214CF6011001F007
:103E300065FD50214CF6021001F060FD50214CF65A
:103E4000031001F05BFD50214CF6041001F056FD0B
:103E500000214FF4545001F051FD55214FF46850AA
:103E600001F04CFD4FF4885001F032FD782003F052
:103E7000D5FB4FF4245001F02BFD01F05EB9FE4854
:103E8000808849F2253188427ED147F6F001E5204D
:103E900001F034FD4FF48071012001F02FFD4FF44B
:103EA000E061022001F02AFD41F23001032001F01F
:103EB00025FD0021042001F021FD40F2022108200F
:103EC00001F01CFD0021092001F018FD00210A204D
:103ED00001F014FD00210C2001F010FD00210D2047
:103EE00001F00CFD00210F2001F008FD0021102041
:103EF00001F004FD0721112001F000FD0021122036
:103F000001F0FCFC0021132001F0F8FC0021072047
:103F100001F0F4FC41F29061102001F0EFFC40F25E
:103F20002721112001F0EAFC9D21122001F0E6FC7E
:103F30004FF4C851132001F0E1FC2521292001F0A4
:103F4000DDFC0D212B2001F0D9FC0721302001F0F0
:103F5000D5FC40F20331312001F0D0FC03213220A6
:103F600001F0CCFC40F20621352001F0C7FC08210D
:103F7000362001F0C3FC40F20641372001F0BEFCC0
:103F80004FF44171382000E057E001F0B7FC072101
:103F9000392001F0B3FC40F202613C2001F0AEFC9C
:103FA00008213D2001F0AAFC0021502001F0A6FCD0
:103FB000EF21512001F0A2FC0021522001F09EFCD3
:103FC00040F23F11532001F099FC4FF4274160204B
:103FD00001F094FC0121612001F090FC00216A2095
:103FE00001F08CFC0021802001F088FC0021812060
:103FF00001F084FC0021822001F080FC002183205C
:1040000001F07CFC0021842001F078FC0021852057
:1040100001F074FC1021902001F070FC4FF4C0619D
:10402000922001F06BFC40F23311072001F066FC96
:104030002221002001F062FC1FE78F48808849F2AE
:10404000283188427ED141F28F01EC2001F056FCEC
:1040500041F23421EF2001F051FC4FF48071012036
:1040600001F04CFC4FF4E061022001F047FC41F20A
:104070003001032001F042FC0021042001F03EFC4D
:1040800040F20221082001F039FC0021092001F052
:1040900035FC00210A2001F031FC01210C2001F047
:1040A0002DFC00210D2001F029FC00210F2001F042
:1040B00025FC0021102001F021FC0721112001F036
:1040C0001DFC0021122001F019FC0021132001F039
:1040D00015FC0121072001F011FC322003F076FAD3
:1040E00041F29041102001F009FC40F227211120FB
:1040F00001F004FC322003F069FA8A21122001F059
:10410000FDFB322003F062FA4FF4D051132001F08E
:10411000F5FB0621292001F0F1FB0D212B2001F0F8
:10412000EDFB322003F052FA0021202001F0E6FBE3
:104130000021212001F0E2FB322003F047FA0021A8
:10414000302000E074E001F0D9FB40F2046131203E
:1041500001F0D4FB40F20531322001F0CFFB002109
:10416000352001F0CBFB40F60941362001F0C6FBBB
:104170004FF40171372001F0C1FB40F201313820CA
:1041800001F0BCFB40F20771392001F0B7FB0021C0
:104190003C2001F0B3FB40F60A213D2001F0AEFBCC
:1041A000322003F013FA0021502001F0A7FBEF2189
:1041B000512001F0A3FB0021522001F09FFB40F2AF
:1041C0003F11532001F09AFB4FF42741602001F08A
:1041D00095FB0121612001F091FB00216A2001F093
:1041E0008DFB0021802001F089FB0021812001F05E
:1041F00085FB0021822001F081FB0021832001F05A
:104200007DFB0021842001F079FB0021852001F055
:1042100075FB1021902001F071FB4FF4C0619220DA
:1042200001F06CFB40F23311072001F067FB24E63C
:104230001148808849F2203188427DD1002108460A
:1042400001F05CFB4FF48071012001F057FB4FF44B
:10425000E061022001F052FB41F23001032001F045
:104260004DFB0021042001F049FB40F2022108200F
:1042700001F044FB002101E0F8050020092001F0D5
:104280003DFB00210A2001F039FB01210C2001F047
:1042900035FB00210D2001F031FB00210F2001F042
:1042A0002DFB322003F092F940F20111072001F0BA
:1042B00025FB322003F08AF94FF48651102001F0DB
:1042C0001DFB0721112001F019FB4FF4887112200A
:1042D00001F014FB4FF43061132001F00FFB0021BB
:1042E000292001F00BFB44F210012B2001F006FB0A
:1042F0000021502001F002FBEF21512001F0FEFAD5
:104300000021522001F0FAFA40F23F11532001F04F
:10431000F5FA4FF41C51602001F0F0FA0121612000
:1043200001F0ECFA00216A2001F0E8FA0021802077
:1043300001F0E4FA002100E031E0812001F0DEFA32
:104340000021822001F0DAFA0021832001F0D6FA60
:104350000021842001F0D2FA0021852001F0CEFA5C
:104360001021902001F0CAFA0021922001F0C6FA33
:104370000121932001F0C2FA4FF48871952001F0D9
:10438000BDFA0021972001F0B9FA0021982001F030
:10439000B5FA40F27311072001F0B0FA6DE5FE485E
:1043A000808849F2313188427DD141F21401E72001
:1043B00001F0A4FA4FF48071012001F09FFA4FF44C
:1043C0000071022001F09AFA41F23801032001F055
:1043D00095FA40F20221082001F090FA002109200C
:1043E00001F08CFA00210A2001F088FA00210C204B
:1043F00001F084FA00210D2001F080FA00210F2045
:1044000001F07CFA0021102001F078FA0721112038
:1044100001F074FA0021122001F070FA002113203B
:1044200001F06CFAC82003F0D1F841F2906110203D
:1044300001F064FA40F22721112001F05FFA3220E6
:1044400003F0C4F80C21122001F058FA322003F0D6
:10445000BDF84FF40061132001F050FA112129201A
:1044600001F04CFA0B212B2001F048FA322003F026
:10447000ADF80021202001F041FA40F23F11212047
:1044800001F03CFA0021302001F038FA4FF483713A
:10449000312001F033FA0021322001F02FFA4FF4DD
:1044A0000171352000E064E001F028FA41F20A6170
:1044B000362001F023FA40F20771372001F01EFA8E
:1044C0004FF48371382001F019FA40F20771392056
:1044D00001F014FA40F202413C2001F00FFA40F6DC
:1044E0000F413D2001F00AFA0021502001F006FAA8
:1044F000EF21512001F002FA0021522001F0FEF9D3
:1045000040F23F11532001F0F9F94FF41C516020A3
:1045100001F0F4F90121612001F0F0F900216A2095
:1045200001F0ECF90021802001F0E8F90021812060
:1045300001F0E4F90021822001F0E0F9002183205C
:1045400001F0DCF90021842001F0D8F90021852058
:1045500001F0D4F91021902001F0D0F94FF4C0619E
:10456000922001F0CBF940F23311072001F0C6F997
:1045700083E48948808845F2084188427ED14FF41F
:104580008071012001F0BAF94FF4E061022001F0DE
:10459000B5F941F23001032001F0B0F90021042007
:1045A00001F0ACF940F20721082001F0A7F9002141
:1045B000092001F0A3F900210A2001F09FF9002150
:1045C0000C2001F09BF900210D2001F097F900214A
:1045D0000F2001F093F9142002F0F8FF41F2B061CE
:1045E000102001F08BF90121112001F087F9012140
:1045F000172001F083F94FF49C71122001F07EF92D
:104600004FF40061132001F079F90921292001F00C
:1046100075F909212A2001F071F90021A42001F087
:104620006DF90021502001F069F9EF21512001F0CE
:1046300065F90021522001F061F940F23F11532049
:1046400001F05CF94FF41C51602001F057F9012191
:10465000612001F053F900216A2001F04FF9002197
:10466000802001F04BF90021812001F047F9002161
:10467000822001F043F90021832000E023E001F0D3
:104680003DF90021842001F039F90021852001F055
:1046900035F91321902001F031F90021922001F029
:1046A0002DF90321932001F029F94FF48871952009
:1046B00001F024F940F27311072001F01FF93220B4
:1046C00002F084FFB8E43448808841F20551884202
:1046D0007ED10021072001F011F9322002F076FF8F
:1046E0004FF48E71122001F009F90121A42001F08C
:1046F00005F90F21082001F001F908210A2001F035
:10470000FDF808210D2001F0F9F840F20771302082
:1047100001F0F4F80721312001F0F0F840F20361D4
:10472000322001F0EBF84FF4E061332001F0E6F8BD
:1047300040F20221342001F0E1F80221352001F09D
:10474000DDF841F60F71362001F0D8F840F207711C
:10475000372001F0D3F80021382001F0CFF80021F4
:10476000392001F0CBF840F207713A2001F0C6F889
:1047700000213B2001F0C2F807213C2001F0BEF8E7
:1047800000213D2001F0BAF8322002F01FFF012184
:10479000072001F0B3F801E0F805002001211720FF
:1047A00001F0ACF8322002F011FF4FF4BD5110209F
:1047B00001F0A4F840F21721112001F09FF84FF406
:1047C0008F71122001F09AF84FF47061132000E00D
:1047D00097E001F093F800212A2001F08FF80A21D8
:1047E000292001F08BF84FF49F71122001F086F818
:1047F0000021502001F082F8EF21512001F07EF8D5
:104800000021522001F07AF840F23F11532001F0CC
:1048100075F84FF41C51602001F070F801216120FF
:1048200001F06CF800216A2001F068F80021802076
:1048300001F064F80021812001F060F8002182205D
:1048400001F05CF80021832001F058F80021842059
:1048500001F054F80021852001F050F81321902038
:1048600001F04CF84FF44071922001F047F8052117
:10487000932001F043F80021952001F03FF800213A
:10488000972001F03BF80021982001F037F84FF411
:104890008071012001F032F84FF4E061022001F054
:1048A0002DF841F23801032001F028F800210420FE
:1048B00001F024F800210C2001F020F800210F2045
:1048C00001F01CF80021202001F018F8002121201F
:1048D00001F014F82121072001F010F8142002F053
:1048E00075FE6121072001F009F8142002F06EFE28
:1048F00040F27311072001F001F8142002F066FE67
:1049000095E4FE4880884BF2055188427ED1002113
:10491000084600F0F3FF0021084600F0EFFF0021F9
:10492000084600F0EBFF0021084600F0E7FF0121F8
:10493000A42000F0E3FF142002F048FE4FF41C51C5
:10494000602000F0DBFF40F20221082000F0D6FFDB
:104950004FF40571302000F0D1FF43F21571312082
:1049600000F0CCFF40F20461322000F0C7FF40F6B7
:104970001661332000F0C2FF42F21121342000F012
:10498000BDFF4FF4A851352000F0B8FF48F20751A1
:10499000362000F0B3FF41F20741372000F0AEFFB0
:1049A00041F20341382000F0A9FF2021392000F016
:1049B000A5FF1A21902000F0A1FF0021102000F097
:1049C0009DFF0721112000F099FF0021122000F027
:1049D00095FF0021132000F091FF142002F0F6FD56
:1049E0004FF4E661102000F089FF40F237111120EA
:1049F00000F084FF142002F0E9FD4FF4DC71122076
:104A000000F07CFF142002F0E1FD00E083E04FF4B1
:104A10007061132000F072FF80212A2000F06EFFE9
:104A20004821292000F06AFF142002F0CFFD4FF446
:104A30008071012000F062FF4FF4E061022000F07D
:104A40005DFF41F23801032000F058FF40F20221DF
:104A5000082000F053FF00210A2000F04FFF002142
:104A60000C2000F04BFF00210D2000F047FF30210B
:104A70000E2000F043FF0021502000F03FFFEF2107
:104A8000512000F03BFF0021522000F037FF40F2A0
:104A90003F11532000F032FF4FF41C51602000F012
:104AA0002DFF0121612000F029FF00216A2000F084
:104AB00025FF1121902000F021FF4FF4C0619220CA
:104AC00000F01CFF40F20241932000F017FF02218A
:104AD000942000F013FF142002F078FD012107203C
:104AE00000F00CFF142002F071FD6121072000F09E
:104AF00005FF40F27311072000F000FF0021202085
:104B000000F0FCFE0021212000F0F8FE2221002010
:104B100000F0F4FE11E3794880884CF20551884298
:104B20007ED10021084600F0E9FE0021084600F091
:104B3000E5FE142002F04AFD0021084600F0DEFEEA
:104B40000021084600F0DAFE0021084600F0D6FEFB
:104B50000021084600F0D2FE0121A42000F0CEFE84
:104B6000142002F033FD4FF41C51602000F0C6FE0B
:104B700040F60601082000F0C1FE40F2037130202B
:104B800000F0BCFE0121312000F0B8FE04213220EB
:104B900000F0B4FE4FF48171332000F0AFFE4FF40B
:104BA0004071342000F0AAFE40F20311352000F0DD
:104BB000A5FE1F21362000F0A1FE40F20371372030
:104BC00000F09CFE0121382000F098FE04213920DD
:104BD00000F094FE1521902000F090FE4FF48261C9
:104BE000102000F08BFE40F24721112000F086FEDD
:104BF0004FF4DE71122000F081FE4FF4606113204B
:104C000000F07CFE782002F0E1FC4FF4807101207E
:104C100000F074FE4FF40071022000F06FFE00E01F
:104C200050E041F23001032000F068FE08210A2024
:104C300000F064FE00210C2000F060FE20210E2018
:104C400000F05CFE00210F2000F058FE0021202023
:104C500000F054FE0021212000F050FE3D212A20CA
:104C600000F04CFE142002F0B1FC2D21292000F0B0
:104C700045FE0021502000F041FE4DF2EF01512091
:104C800000F03CFE0021522000F038FE40F23F11BF
:104C9000532000F033FE0021612000F02FFE0021A0
:104CA0006A2000F02BFE4FF44071922000F026FEA7
:104CB0000521932000F022FE4FF48071072000F0C0
:104CC0001DFE3AE20D48808844F2315188427CD181
:104CD0000121002000F012FE0A2002F077FC41F2D0
:104CE0002861102000F00AFE0E21122000F006FEBE
:104CF00040F63921132000F001FE01E0F805002004
:104D00000A2002F063FC4021112000F0F7FD502141
:104D1000152000F0F3FD0A2002F058FC1E2112209D
:104D200000F0ECFD0A2002F051FC4FF4B1511020CC
:104D300000F0E4FD42F63921132000F0DFFD0A20E7
:104D400002F044FC4FF48071012000F0D7FD4FF4D5
:104D50004071022000F0D2FD41F23801032000F042
:104D6000CDFD40F20221082000F0C8FD08210A20F4
:104D700000F0C4FD0021302000F0C0FD40F20241EF
:104D8000312000F0BBFD4FF48371322000F0B6FDFE
:104D900040F20351332000F0B1FD4FF48271342012
:104DA00000F0ACFD40F20131352000F0A7FD40F2EB
:104DB0000771362000F0A2FD40F20531372000F0E7
:104DC0009DFD4FF40271382000E040E000F096FDB8
:104DD00040F60B71392000F091FD0221412000F0D6
:104DE0008DFD4FF41C51602000F088FD01216120F1
:104DF00000F084FD4FF40471902000F07FFD4FF42B
:104E00008571922000F07AFD0421932000F076FD58
:104E10004FF48071A02000F071FD0121072000F007
:104E20006DFD2121072000F069FD2321072000F0FE
:104E300065FD3321072000F061FD40F233110720AA
:104E400000F05CFD0021A02000F058FD75E1C14894
:104E5000808844F2355188427ED13021152000F0FF
:104E60004DFD10219A2000F049FD2021112000F075
:104E700045FD43F22841102000F040FD02211220A0
:104E800000F03CFD41F23801132000F037FD2820EE
:104E900002F09CFB1221084600F030FD282002F0B1
:104EA00095FB43F22041102000F028FD43F2380129
:104EB000132000F023FD462002F088FB0021302063
:104EC00000F01CFD40F20241312000F017FD40F2DD
:104ED0000731322000F012FD4FF44171332000F011
:104EE0000DFD0421342000F009FD40F20141352080
:104EF00000F004FD40F20771362000F0FFFC40F2A4
:104F00000531372000F0FAFC4FF4C261382000F080
:104F1000F5FC4FF4C261392000F0F0FC4FF48071D1
:104F2000012000F0EBFC4FF44071022000F0E6FCA1
:104F300041F23001032000F0E1FC40F608010820B6
:104F400000F0DCFC08210A2000F0D8FC4FF41C51D2
:104F5000602000F0D3FC00E031E00121612000F08E
:104F6000CDFC4FF49F71902000F0C8FC4FF480718D
:104F7000922000F0C3FC4FF48071932000F0BEFC3F
:104F80004FF44051A02000F0B9FC1021A32000F004
:104F9000B5FC0121072000F0B1FC2121072000F021
:104FA000ADFC2321072000F0A9FC3321072000F0ED
:104FB000A5FC40F23311072000F0A0FCBDE06548DD
:104FC000808841F663118842F8D1E22000F080FC2D
:104FD0001D2000F071FC022000F06EFC042000F0A7
:104FE0006BFC642002F01AFBE02000F071FC012051
:104FF00000F062FC0A2002F0E9FAE02000F068FC10
:10500000032000F059FC0C2002F0E0FA012000F02F
:105010005FFC0A2002F0DAFAE62000F059FC2F20AB
:1050200000F04AFCFF2000F047FCFF2000F044FCA9
:10503000B02000F04DFC202000F03EFC002000F0ED
:105040003BFC032000F038FC40F21F3000F034FC41
:10505000012000F031FC40F2DF1000F02DFC0020B8
:1050600000F02AFCB42000F033FC042000F024FC03
:1050700040F21F4000F020FC002000F01DFC2E201C
:1050800000F01AFC002000F017FC002000F014FCD7
:10509000002000F011FC002000F00EFCB62000F013
:1050A00017FC022000F008FC4FF4037000F004FC31
:1050B000002000F001FC172000F0FEFB152000F09E
:1050C000FBFB002000F0F8FB002000F0F5FBF020D7
:1050D00000F0FEFB032000F0EFFB292000F0F8FBBE
:1050E000D02000F0F5FB002000F0E6FBBE2000F031
:1050F000EFFB052000F0E0FBFE2000F0DDFB0120CF
:1051000000F0DAFB002000F0D7FB002000F0D4FB19
:10511000002000F0D1FBB82000F0DAFB032000F003
:10512000CBFB012000F0C8FBBA2000F0D1FB01202E
:1051300000F0C2FB642000F033F80020FCF784F993
:105140000120054908604FF6FF70FCF747F92BB0C6
:1051500000BD0000F8050020BC82404210B50246A8
:10516000012000E050430B1EA1F10104E1B2F9D18E
:1051700010BD000008B5034800880090BDF800008D
:1051800008BD00008000006C10B50446204600F009
:105190009FFB052002F042FAFFF7ECFF10BD000074
:1051A00070B52DED048B0446BE2000F091FB052068
:1051B00000F082FB2046FBF7E3F841EC190B9FED72
:1051C0000E0B53EC102BFBF769F841EC180BFBF7B7
:1051D000E4F885B2284600F06FFB012000F06CFB7C
:1051E000FF2000F069FB002000F066FB002000F0CB
:1051F00063FBBDEC048B70BD666666666666044044
:10520000F0B5054600240027B748807901280BD166
:10521000B548808846F60401884205D0B2488088A7
:1052200041F66311884208D1AF488079F0B9AE48A1
:10523000808841F66311884218D1082D15D2DFE825
:1052400005F00406080A0C0E101206250DE00725CD
:105250000BE0042509E0052507E0012505E0002510
:1052600003E0032501E0022500BF00BF9E488088BF
:1052700049F24131884217D09B48808846F60401A4
:10528000884211D09848808845F2103188420BD06E
:105290009548808845F21051884205D09248808810
:1052A00041F6631188427DD1082D1CD2DFE805F05C
:1052B0000406090C0F12151800BF14E044F0800416
:1052C00011E044F040040EE044F0C0040BE044F070
:1052D000200408E044F0600405E044F0A00402E08B
:1052E00044F0E00400BF00BF7F48808845F21051C1
:1052F000884202D14FF4585700E036277A48808818
:1053000045F2103188420DD07748808845F210511F
:10531000884207D07448808841F66311884201D0E2
:1053200044F008047048808846F60401884201D1A0
:1053300044F002042146384600F0E0FA6A488088CA
:1053400041F6631188421DD004F0200068B1664820
:10535000008865494988884214DA6348068840888D
:1053600061490880084646800CE05F4800885E4935
:105370004988884206DD5C48068840885A4908808A
:10538000084646805848808845F21051884254D1DA
:105390005549488900F09CFA002000F08DFA5249E6
:1053A000498900E078E0491C88B200F091FA0020B9
:1053B00000F082FA4C494989891C88B200F088FAC9
:1053C00049490988491EC1F30F2000F075FA464982
:1053D0004989C91C88B200F07BFA43490978491E03
:1053E000C8B200F069FA4049888900F071FA0020DB
:1053F00000F062FA3C498989491C88B200F068FAD9
:10540000002000F059FA38498989891C88B200F0D7
:105410005FFA35494988491EC1F30F2000F04CFA64
:1054200031498989C91C88B200F052FA2E4989781D
:10543000491EC8B200F040FA55E02B49488900F0F7
:1054400047FA002000F038FA002000F035FA26492B
:105450000988491EC1F30F2000F02EFA224909786D
:10546000491EC8B200F028FA1F49888900F030FAB6
:10547000002000F021FA002000F01EFA1A494988A5
:10548000491EC1F30F2000F017FA17498978491E09
:10549000C8B200F011FA26E0082D1CD2DFE805F0B2
:1054A00004070A0D0F12151844F0300413E044F0FD
:1054B000100410E044F020040DE000BF0BE044F0C5
:1054C000380408E044F0280405E044F0180402E041
:1054D00044F0080400BF00BF032744F48054214671
:1054E000384600F00BFAF0BDF805002030B5044650
:1054F0000D466748808849F24131884205D06448AA
:10550000808845F21031884214D16149488900F001
:10551000DFF9201200F0D0F9E0B200F0CDF95C49DB
:10552000888900F0D5F9281200F0C6F9E8B200F039
:10553000C3F9ABE05648808846F6040188421DD185
:1055400053488079012804D151480088401E001B2F
:1055500084B24F49488900F0BBF9201200F0ACF941
:10556000E0B200F0A9F94A49888900F0B1F928129F
:1055700000F0A2F9E8B200F09FF987E04448808883
:1055800041F66311884247D141488079A8B9404823
:105590000088401E001B84B23D49488900F098F9FC
:1055A000002000F089F9002000F086F9201200F0B8
:1055B00083F9E0B200F080F916E03549488900F03F
:1055C00087F9201200F078F9E0B200F075F930495F
:1055D0000988491EC1F30F2000F06EF92C490978A3
:1055E000491EC8B200F068F92949888900F070F9AD
:1055F000281200F061F9E8B200F05EF92449498808
:10560000491EC1F30F2000F057F921498978491E3E
:10561000C8B200F051F939E01D48808845F21051B8
:10562000884220D11A49488900F052F9201200F02E
:1056300043F917494989491C88B200F049F9E0B299
:1056400000F03AF91249888900F042F9281200F076
:1056500033F90F498989491C88B200F039F9E8B259
:1056600000F02AF912E00A488079012804D108489C
:105670000088401E001B84B205494889214600F07D
:105680003DF903498889294600F038F930BD00000A
:10569000F80500202DE9F84F80460E4617461C46B7
:1056A000B3462046E31704EB5373DB1021464FEA61
:1056B000E47C04EB5C7C4FEAEC0CA4EBCC0CBCF17E
:1056C000000F02D04FF0010C01E04FF0000C6344DA
:1056D000224604EBD27C4FEA6C0C03FB0CF3DBB2EA
:1056E0000093A7F12000C7B2002556E00C2C07D18B
:1056F00007EB47002B4901EB800010F8059013E001
:10570000102C05D1284800EB071010F805900BE08D
:10571000182C07D107EBC700244901EB800010F8D3
:10572000059001E0BDE8F88F4FF0000A2FE009F086
:10573000800030B11E48028831464046FBF764FFC6
:1057400007E00A9828B91B48028831464046FBF713
:105750005BFF4FEA49604FEA1069701C86B2164839
:105760004088B04200DCDDE7A6EB0B00A0420AD186
:105770005E4608F101001FFA80F80F480088404596
:1057800000DCCFE706E00AF1010000F0FF0ABAF101
:10579000080FCCDB00BF681CC5B200988542A5DBB2
:1057A00000BFBFE7007B0008747F00086485000825
:1057B0001400002016000020F80500202DE9FF4FFE
:1057C00081B0074691461E460E9D4FF0000A002408
:1057D00039E0301B401EC1B20A20FFF7BFFCB9FB05
:1057E000F0F00A21B0FBF1F201FB1208BAF1000F50
:1057F00016D1701EA04213DDB8F1000F0ED10020AB
:10580000AB4605EBDB71491001FB0471009088B2D7
:105810002B4620220299FFF73DFF12E04FF0010ACC
:105820000020AB4605EBDB71491001FB04710090D1
:1058300088B208F13001CAB22B460299FFF72AFF5D
:1058400000BF601CC4B2B442C3DB05B0BDE8F08F3A
:105850002DE9F84704460D4690469946DDE909676B
:1058600004F0FF0A08EB04001FFA80F809EB0500BA
:105870001FFA80F916E0444502DB5446A81985B2A8
:105880004D4500DB14E0002000903A78334629466D
:105890002046FFF7FFFE304606EBD07104EB6101B6
:1058A0008CB27F1C38787E2802DC38782028E2DA37
:1058B00000BFBDE8F887000001B5BDF8000000900A
:1058C000BDF800000149088008BD00008000006CA0
:1058D00001B5BDF800000090BDF800000149088046
:1058E00008BD00007E00006C024800890249088063
:1058F00070470000F80500207E00006C034A10800D
:105900004FF0D842A2F88010704700007E00006C73
:1059100000B587B000BF002001901148006840F03A
:1059200020000F4908600846006800F02000019040
:1059300000BF00BF4FF4C060029001200390002020
:1059400004900220059002A90648FBF72DFA0122D7
:105950004FF4C0610348FBF72DFB07B000BD00000A
:10596000303802400014024010B501224FF4C061EB
:105970000148FBF71FFB10BD0014024010B50022C8
:105980004FF4C0610148FBF715FB10BD0014024045
:1059900070B50024002507E001F0A4FD04440520B3
:1059A00001F014FE681CC5B20A2DF5DB0A20B4FB19
:1059B000F0F4B4F57A6F01D94FF47A642820B4FB7F
:1059C000F0F0C0F16400C0B270BD000000B587B057
:1059D00000BF002001900D48006840F020000B49F6
:1059E00008600846006800F02000019000BF00BF7A
:1059F00080200290032003900020049002A9044814
:105A0000FBF7D2F9FAF788FD07B000BD3038024045
:105A10000014024002480068C0F3022070470000F2
:105A20000CED00E010B5002807DA0A07140E054A4D
:105A300000F00F031B1FD45403E00A07130E024AA1
:105A4000135410BD18ED00E000E400E017481848BA
:105A50001848194819481A481A481B481B481C4836
:105A60001C481D481D481E481E481F481F48204806
:105A700020482148214822482248234823482448D6
:105A800024482548254826482648274827482848A6
:105A90002848294829482A482A482B482B482C4876
:105AA0002C482D482D482E4800BF7047C092000852
:105AB000C4920008CA920008CC920008C89200085C
:105AC000CE920008D0920008D2920008D49200082A
:105AD000D6920008D8920008DA920008DC920008FA
